:100000000C9440000C945D000C945D000C945D0019
:100010000C945D000C945D000C945D000C949701B1
:100020000C945D000C945D000C945D000C945D00DC
:100030000C945D000C945D000C945D000C945D00CC
:100040000C945D000C945D000C945D000C945D00BC
:100050000C945D000C945D000C945D000C945D00AC
:100060000C945D000C945D007374617274696E672A
:100070002072756D707573746573742E2E2E0A0060
:1000800011241FBECFEFD4E0DEBFCDBF11E0A0E052
:10009000B1E0E0E6FCE002C005900D92A432B107A9
:1000A000D9F711E0A4E2B1E001C01D92A933B10774
:1000B000E1F70E9447010C942E060C94000087B1D2
:1000C000807F87B988B18F6088B91092280110921B
:1000D000270108950F931F93CF93DF9380912701FA
:1000E00090912801009719F0859739F50BC061E0D0
:1000F00085E291E00E947D0185E290E090932801E5
:100100008093270185E291E00E9483018823C9F052
:1001100046B14F7020911D0190911C0194239227AC
:10012000392F322380912401832B8093240192273D
:1001300090931D0140931C01DACF10922801109278
:10014000270180912401882309F443C00E94FF0005
:10015000C0E0D0E000E011E08091240190E00C2E9E
:1001600002C0959587950A94E2F780FF0CC021960E
:10017000DF93CF9321971F930F930E9418020F9044
:100180000F900F900F902196C430D10529F78091E0
:10019000240180FF04C066E984E10E94620180912D
:1001A000240181FF04C06CE88EE10E94620180910D
:1001B000240182FF04C068E788E20E946201809106
:1001C000240183FF04C064E682E30E94620110926E
:1001D0002401DF91CF911F910F91089587B1806322
:1001E00087B988B18F7C88B98AB1806C8AB98BB1A4
:1001F0008F738BB910922D0110922C01089580FFFE
:1002000002C0449A01C0449881FF02C0459A01C0CF
:10021000459882FF02C05E9A01C05E9883FF02C0CB
:100220005F9A08955F98089580912C0190912D0117
:10023000009719F0CF9731F51EC020912B01822F26
:1002400090E087709070892B21F0220F20932B0172
:1002500003C081E080932B0180912B010E94FF005D
:1002600062E389E291E00E947D018FE390E0909348
:100270002D0180932C0189E291E00E948301882363
:10028000E1F6089510922D0110922C0108950E941C
:10029000BA0188E690E09F938F930E942D020E94FE
:1002A000EE000E945F000E9471010E945F0178943D
:1002B0000F900F900E9414010E946A00FBCF219AB8
:1002C0002998089598EC899F9001112442E085B106
:1002D000842785B9C9010197F1F76150C0F72998C2
:1002E000089583EC8093B30092E09093B00087E090
:1002F0008093B100909370000895FC0180912E01CD
:10030000808361830895FC012181222311F481E01F
:10031000089590912E018081891711F480E008954D
:100320002150218380912E01808380E0089578946C
:100330001F920F920FB60F9211248F9380912E016E
:100340008F5F80932E018F910F900FBE0F901F90A3
:1003500018951F93182F8A3019F48DE00E94A90177
:100360008091C00085FFFCCF1093C60080E090E034
:100370001F9108951092C5008AE08093C40086E022
:100380008093C20088E08093C10060E070E089EA59
:1003900091E00E94CC0108950F931F93CF93DF93B8
:1003A0008C01EB01009731F46115710519F420E01F
:1003B00030E038C06EE070E081E090E00E943204EE
:1003C000FC019C01009771F180E88383209771F014
:1003D000D387C28781E8838380912F019091300178
:1003E000892B21F4F0933001E0932F0101151105C1
:1003F000C9F01187008783818260838380913101F6
:1004000090913201892B71F4F0933201E093310124
:100410008091330190913401892B21F4F0933401C0
:10042000E0933301C901DF91CF911F910F9108959E
:10043000A0E0B0E0EEE1F2E00C940706FE01359694
:1004400061917191AF0180913101909132010E94CF
:1004500053022096E2E00C942306A0E0B0E0E3E330
:10046000F2E00C940706FE01359661917191A0911E
:100470003101B091320113968C91139788601396D5
:100480008C93AF0180913101909132010E9453020F
:10049000E0913101F09132012381277F238320965F
:1004A000E2E00C942306ABE0B0E0E9E5F2E00C9466
:1004B000F7053C012B015A01FC011782168283814A
:1004C00081FD03C06FEF7FEFC8C19AE0892E1E0146
:1004D0000894211C311CF3012381F20123FD859135
:1004E00023FF81912F01882309F4B4C1853239F4A7
:1004F00023FD859123FF81912F01853229F4B301DA
:1005000090E00E946D05E7CF982FDD24CC2499243C
:10051000FFE1FD15D0F09B3269F09C3228F4903257
:1005200059F0933291F40EC09D3249F0903369F442
:1005300041E024C052E0D52A84E0D82A28C098E0BF
:10054000D92A25C0E0E1DE2A22C0D7FC29C0892FA4
:1005500080538A3070F4D6FE05C0989C902C1124EC
:10056000980E15C0C89CC02C1124C80EF0E2DF2ADA
:100570000EC09E3229F4D6FC6DC140E4D42A07C0D7
:100580009C3619F450E8D52A02C0983649F4F20195
:1005900023FD959123FF91912F01992309F0B8CF65
:1005A000892F8554833018F08052833038F444E02A
:1005B00050E0A40EB51E5FE359830FC0933631F0AF
:1005C000933779F0933509F056C020C0F50180814A
:1005D000898342E050E0A40EB51E710101E010E0F5
:1005E00012C0F501E080F180D6FC03C06FEF7FEF11
:1005F00002C0692D70E042E050E0A40EB51EC701B4
:100600000E9462058C015FE7D52214C0F501E080ED
:10061000F180D6FC03C06FEF7FEF02C0692D70E060
:1006200042E050E0A40EB51EC7010E9450058C01A7
:1006300050E8D52AD3FE07C01AC0B30180E290E08B
:100640000E946D05CA948C2D90E008171907A8F335
:100650000EC0F701D7FC8591D7FE81917F01B301D0
:1006600090E00E946D05C110CA9401501040011520
:10067000110579F7ECC0943611F0993671F5D7FE73
:1006800008C0F501E080F1800281138144E050E070
:100690000AC0F501808191817C010027F7FC00955B
:1006A000102F42E050E0A40EB51E5FE6D52217FFE2
:1006B0000AC010950095F094E094E11CF11C011D16
:1006C000111D80E8D82A2AE030E0A101C801B70155
:1006D0000E949905F82EF21840C0953729F41D2D77
:1006E0001F7E2AE030E01DC01D2D197F9F3661F06E
:1006F000903720F4983509F0ADC00FC0903739F02D
:10070000983709F0A7C004C028E030E00AC01061A3
:1007100014FD146020E130E004C014FD166020E1F7
:1007200032E017FF08C0F5016081718182819381F9
:1007300044E050E008C0F50180819181BC0180E077
:1007400090E042E050E0A40EB51EA1010E94990580
:10075000F82EF2188FE7D82ED122D6FE0BC05EEF0E
:10076000D522F91438F4D4FE07C0D2FC05C08FEEB0
:10077000D82202C01F2D01C0192DD4FE0DC0FE01CC
:10078000EF0DF11D8081803319F499EED92208C054
:100790001F5FD2FE05C003C08D2D867809F01F5F54
:1007A0000D2DD3FC14C0D0FE0FC01C1510F09F2CD3
:1007B0000BC09F2C9C0C911A1C2D06C0B30180E22B
:1007C00090E00E946D051F5F1C15C0F304C01C154E
:1007D00010F4C11A01C0CC2404FF10C0B30180E39F
:1007E00090E00E946D0502FF1EC001FD03C088E776
:1007F00090E002C088E590E0B3010CC0802F8678BD
:1008000091F001FF02C08BE201C080E2D7FC8DE2D3
:10081000B30190E00E946D0506C0B30180E390E053
:100820000E946D059A94F914C0F3FA94F101EF0D4A
:10083000F11DB301808190E00E946D05FF20A9F7B2
:1008400006C0B30180E290E00E946D05CA94CC20FE
:10085000C1F741CEF30166817781CB012B96E2E1AE
:100860000C9413060F931F93CF93DF93689F80011F
:10087000699F100D789F100D1124C8010E944E042D
:10088000EC01009729F0A80160E070E00E945B0590
:10089000CE01DF91CF911F910F910895CF93DF93F8
:1008A000BC018230910510F462E070E0A091370144
:1008B000B0913801ED01E0E0F0E040E050E021C00F
:1008C000888199818617970769F48A819B8130977F
:1008D00019F09383828304C0909338018093370189
:1008E000FE0134C06817790738F44115510519F035
:1008F0008417950708F4AC01FE018A819B819C0155
:10090000E9012097E9F641155105A9F1CA01861BB5
:10091000970B049708F4BA01E0E0F0E02AC08D914B
:100920009C91119784179507F9F46417750781F462
:1009300012968D919C911397309719F0938382832F
:1009400004C09093380180933701FD0132964CC06A
:10095000CA01861B970BFD01E80FF91F6193719384
:1009600002978D939C9340C0FD01828193819C01ED
:10097000D9011097A1F68091350190913601892B0C
:1009800041F4809120019091210190933601809350
:10099000350140912201509123014115510541F447
:1009A0004DB75EB780911E0190911F01481B590BF6
:1009B0002091350130913601CA01821B930B8617B5
:1009C000970780F0AB014E5F5F4F8417950750F09B
:1009D000420F531F5093360140933501F901619343
:1009E000719302C0E0E0F0E0CF01DF91CF91089574
:1009F000CF93DF93009709F450C0EC0122971B823C
:100A00001A82A0913701B0913801109709F140E0A6
:100A100050E0AC17BD0708F1BB83AA83FE0121910A
:100A20003191E20FF31FAE17BF0779F48D919C91BE
:100A30001197280F391F2E5F3F4F39832883129655
:100A40008D919C9113979B838A834115510571F475
:100A5000D0933801C093370120C012968D919C919C
:100A60001397AD01009711F0DC01D3CFFA01D383C6
:100A7000C28321913191E20FF31FCE17DF0769F492
:100A800088819981280F391F2E5F3F4FFA013183EA
:100A900020838A819B8193838283DF91CF91089504
:100AA000FC010590615070400110D8F78095909539
:100AB0008E0F9F1F0895DC0101C06D93415050407F
:100AC000E0F70895FC016150704001900110D8F7E3
:100AD000809590958E0F9F1F08950F931F93CF932E
:100AE000DF938C01EB018B8181FF1BC082FF0DC066
:100AF0002E813F818C819D812817390764F4E8811C
:100B0000F9810193F983E88306C0E885F985802F90
:100B10000995892B31F48E819F8101969F838E8365
:100B200002C00FEF1FEFC801DF91CF911F910F910E
:100B30000895FA01AA27283051F1203181F1E89473
:100B40006F936E7F6E5F7F4F8F4F9F4FAF4FB1E0C0
:100B50003ED0B4E03CD0670F781F891F9A1FA11DBB
:100B6000680F791F8A1F911DA11D6A0F711D811DBC
:100B7000911DA11D20D009F468943F912AE0269F81
:100B800011243019305D3193DEF6CF010895462FE0
:100B90004770405D4193B3E00FD0C9F7F6CF462FC1
:100BA0004F70405D4A3318F0495D31FD405241932A
:100BB00002D0A9F7EACFB4E0A695979587957795E7
:100BC0006795BA95C9F700976105710508959B016E
:100BD000AC010A2E06945795479537952795BA95F7
:100BE000C9F7620F731F841F951FA01D08952F92D0
:100BF0003F924F925F926F927F928F929F92AF92AD
:100C0000BF92CF92DF92EF92FF920F931F93CF93F9
:100C1000DF93CDB7DEB7CA1BDB0B0FB6F894DEBF90
:100C20000FBECDBF09942A88398848885F846E84B6
:100C30007D848C849B84AA84B984C884DF80EE8000
:100C4000FD800C811B81AA81B981CE0FD11D0FB609
:100C5000F894DEBF0FBECDBFED010895F894FFCF2D
:100C6000627574746F6E20256420686173206265FC
:100C7000656E20707265737365640A000F0F200043
:040C80003901000036
:00000001FF
